:0200000280007C
:1000000070240720650108006301080063010800EF
:10001000630108006301080063010800000000009C
:100020000000000000000000000000006301080064
:10003000630108000000000063010800630108007C
:100040006301080063010800630108006301080000
:1000500063010800630108006301080063010800F0
:10006000630108006301080000000000630108004C
:10007000630108006301080063010800000000003C
:10008000000000006301080063010800630108002C
:1000900063010800630108006301080063010800B0
:1000A000630108000000000063010800630108000C
:1000B0006301080063010800630108006301080090
:1000C0006301080063010800630108006301080080
:1000D0006301080063010800630108006301080070
:1000E0006301080063010800630108006301080060
:1000F0006301080010B5054C237833B9044B13B1E4
:100100000448AFF300800123237010BD2C040720A6
:1001100000000000A40308000C4B43B10C4810B5CC
:100120000C49AFF300800C48036823B910BD0A489E
:10013000036833B97047094B002BF7D0BDE8104076
:100140001847064B002BF5D0184700BF00000000F1
:10015000A403080030040720A403080000000000E6
:100160007047FEE708B51C4B1C4A9A4210D01C4B46
:10017000194A9A420CD2013B9B1A23F00303043321
:100180001344164951F8040B42F8040B9A42F9D172
:10019000144B154A9A420AD2013B9B1A23F00303DF
:1001A00004331344002142F8041B9342FBD10F4B4C
:1001B00023F0604222F07F020D498A6003F1604320
:1001C000B3F5801F03D28B6843F000538B60094B5B
:1001D0009847094B9847FEE700000720A403080052
:1001E0002C0407206C0407202C04072000000800C2
:1001F00000ED00E00D020800FD01080008B5024B0B
:100200009847002008BD00BF6101080070B50F4E7F
:100210000F4D761BB61018BF002405D0013455F8D9
:10022000043B9847A642F9D10A4E0B4D00F0A8F8BE
:10023000761BB61018BF002406D0013455F8043BD5
:100240009847A642F9D170BD70BD00BF8C0308006D
:100250008C030800940308008C030800024B13B1C0
:10026000024800F005B87047000000007D02080059
:10027000002301461A46184600F01EB838B50A4C4D
:100280000A4D641BA4100AD004F18043013B05EB26
:100290008305013C55F804399847002CF9D1BDE895
:1002A000384000F077B800BFA4030800A00308009E
:1002B000704700BF704700BF2DE9F8432C4D06463C
:1002C000286898460F469146FFF7F2FF294B1C68B5
:1002D000D4F84831002B3ED05A681F2A1CDC02F1AA
:1002E000010E76B1012103EB8204C4F88890D3F8A3
:1002F000880191400843022EC3F88801C4F80881A0
:1003000023D00232C3F804E0286843F82270FFF7D4
:10031000D1FF0020BDE8F883174B0BB34FF4C87032
:10032000AFF300800346D8B10020D4F848114FF055
:10033000010E586019600246C4F84831C3F88801BC
:10034000C3F88C01002EDCD0CCE7D3F88C0101433C
:10035000C3F88C11D5E704F5A673C4F84831BBE7A0
:100360002868FFF7A7FF4FF0FF30BDE8F88300BF14
:10037000280407207C03080000000000000007207C
:10038000F8B500BFF8BC08BC9E4670475D02080087
:1003900019010800F8B500BFF8BC08BC9E467047BC
:0403A000F50008005C
:1003A40000000000EC02072054030720BC030720D0
:1003B4000000000000000000000000000000000039
:1003C4000000000000000000000000000000000029
:1003D4000000000000000000000000000000000019
:1003E4000000000000000000000000000000000009
:1003F40000000000000000000000000000000000F9
:1004040000000000000000000000000000000000E8
:1004140000000000000000000000000000000000D8
:1004240000000000000000000000000000000000C8
:1004340000000000000000000000000000000000B8
:1004440000000000000000000100000000000000A7
:100454000E33CDAB34126DE6ECDE05000B0000006C
:100464000000000000000000000000000000000088
:100474000000000000000000000000000000000078
:100484000000000000000000000000000000000068
:100494000000000000000000000000000000000058
:0C07C400000000000000000048040720B6
:040000038000016513
:00000001FF
